:020000040800F2
:1000000000800120D10B0008590B00085F0B00088D
:10001000650B00086B0B0008710B00080000000066
:10002000000000000000000000000000770B000846
:10003000850B000800000000930B0008A10B0008CE
:10004000210C0008210C0008210C0008210C0008DC
:10005000210C0008210C0008210C0008210C0008CC
:10006000210C0008210C0008210C0008210C0008BC
:10007000210C0008210C0008210C0008210C0008AC
:10008000210C0008210C0008210C000800000000D1
:10009000000000000000000000000000210C00082B
:1000A000210C0008210C0008210C0008210C00087C
:1000B000210C0008210C0008210C0008210C00086C
:1000C000210C0008210C0008210C0008210C00085C
:1000D000210C0008210C0008210C00080000000081
:1000E000210C0008210C0008210C00080000000071
:1000F000000000000000000000000000210C0008CB
:1001000000000000210C0008210C0008210C000850
:1001100000000000000000000000000000000000DF
:10012000210C0008210C0008210C0008210C0008FB
:10013000210C00080000000000000000000000008A
:10014000000000000000000000000000210C00087A
:10015000210C0008210C0008210C0008210C0008CB
:10016000210C0008210C0008000000000000000025
:10017000000000000000000000000000000000007F
:1001800000000000210C000800000000000000003A
:04019000210C000836
:1001940010B5054C237833B9044B13B10448AFF3BD
:1001A40000800123237010BD0C000020000000001B
:1001B4001C21000808B5034B1BB103490348AFF3E6
:1001C400008008BD00000000100000201C21000871
:1001D40053B94AB9002908BF00281CBF4FF0FF31AA
:1001E4004FF0FF3000F074B9ADF1080C6DE904CEA6
:1001F40000F006F8DDF804E0DDE9022304B07047FE
:100204002DE9F047089D04468E46002B4DD18A42C5
:10021400944669D9B2FA82F252B101FA02F3C2F1F8
:10022400200120FA01F10CFA02FC41EA030E944089
:100234004FEA1C48210CBEFBF8F61FFA8CF708FBAA
:1002440016E341EA034306FB07F199420AD91CEB82
:10025400030306F1FF3080F01F81994240F21C81B4
:10026400023E63445B1AA4B2B3FBF8F008FB1033FC
:1002740044EA034400FB07F7A7420AD91CEB040431
:1002840000F1FF3380F00A81A74240F20781644401
:10029400023840EA0640E41B00261DB1D440002386
:1002A400C5E900433146BDE8F0878B4209D9002DEA
:1002B40000F0EF800026C5E9000130463146BDE874
:1002C400F087B3FA83F6002E4AD18B4202D38242DE
:1002D40000F2F980841A61EB030301209E46002D8D
:1002E400E0D0C5E9004EDDE702B9FFDEB2FA82F2E2
:1002F400002A40F09280A1EB0C014FEA1C471FFA40
:100304008CFE0126200CB1FBF7F307FB131140EA26
:1003140001410EFB03F0884208D91CEB010103F1F3
:10032400FF3802D2884200F2CB804346091AA4B2B5
:10033400B1FBF7F007FB101144EA01440EFB00FE89
:10034400A64508D91CEB040400F1FF3102D2A645EE
:1003540000F2BB800846A4EB0E0440EA03409CE78D
:10036400C6F12007B34022FA07FC4CEA030C20FA3A
:1003740007F401FA06F31C43F9404FEA1C4900FA5A
:1003840006F3B1FBF9F8200C1FFA8CFE09FB1811D7
:1003940040EA014108FB0EF0884202FA06F20BD94A
:1003A4001CEB010108F1FF3A80F08880884240F29A
:1003B4008580A8F102086144091AA4B2B1FBF9F0DE
:1003C40009FB101144EA014100FB0EFE8E4508D9D9
:1003D4001CEB010100F1FF346CD28E456AD902385E
:1003E400614440EA0840A0FB0294A1EB0E01A14243
:1003F400C846A64656D353D05DB1B3EB080261EBB1
:100404000E0101FA07F722FA06F3F1401F43C5E98A
:10041400007100263146BDE8F087C2F12003D840C0
:100424000CFA02FC21FA03F3914001434FEA1C4702
:100434001FFA8CFEB3FBF7F007FB10360B0C43EAF4
:10044400064300FB0EF69E4204FA02F408D91CEBA4
:10045400030300F1FF382FD29E422DD902386344A2
:100464009B1B89B2B3FBF7F607FB163341EA034142
:1004740006FB0EF38B4208D91CEB010106F1FF3891
:1004840016D28B4214D9023E6144C91A46EA004688
:1004940038E72E46284605E70646E3E61846F8E61A
:1004A4004B45A9D2B9EB020864EB0C0E0138A3E763
:1004B4004646EAE7204694E74046D1E7D0467BE744
:1004C400023B614432E7304609E76444023842E7BC
:1004D400704700BF80B483B000AF0346FB80094B74
:1004E4001B6800225A6200BF064B1B685A6AFB88CD
:1004F4009A42F9D300BF00BF0C37BD465DF8047BB8
:10050400704700BF2800002080B586B000AF0023EC
:10051400FB753B4600221A605A609A60DA601A61E1
:100524004FF400733B6001237B600023FB600023D6
:10053400BB603B4619462D4800F0EEFC00224FF408
:1005440000712A4800F084FE40F21450FFF7C2FF05
:1005540001224FF40071254800F07AFE1E20FFF7B7
:10056400B9FF00237B600123BB603B4619461F484B
:1005740000F0D2FC2820FFF7ADFF4FF400711B48B8
:1005840000F04EFE0346002B0CD15020FFF7A2FFD3
:100594004FF40071154800F043FE0346002B01D0D0
:1005A4000123FB7500F0A2FB0346114A136000F01F
:1005B4009DFB03460F4A136004E000F097FB0346DB
:1005C4000C4A13604FF40071084800F029FE0346FA
:1005D400002B06D0064B1B689A1C064B1B689A42DC
:1005E400EBD8FB7D18461837BD4680BD0004024099
:1005F400780000207C00002080B582B000AF00238A
:10060400FB7166E000F072FB0346364A136000F0AB
:100614006DFB0346344A136004E000F067FB0346B5
:10062400314A13604FF40071304800F0F9FD03467D
:10063400002B06D12B4B1B689A1C2B4B1B689A4230
:10064400EBD82820FFF746FF4FF40071274800F04D
:10065400E7FD0346002B0ED1FB79C3F1070301220A
:1006640002FA03F35BB2DB435AB297F90630134044
:100674005BB2BB710BE0FB79C3F10703012202FA01
:1006840003F35AB297F9063013435BB2BB7100F01F
:100694002DFB0346134A136000F028FB0346124A5D
:1006A400136004E000F022FB03460F4A13604FF48A
:1006B40000710E4800F0B4FD0346002B06D0094B30
:1006C4001B689A1C084B1B689A42EBD8FB790133D0
:1006D400FB71FB79072B95D9BB7918460837BD46C2
:1006E40080BD00BF780000207C0000200004024090
:1006F40080B500AF00F094FA00F0DAF800F088F961
:1007040000F036F95C4801F031FAFFF7FDFE0346CC
:10071400002B7CD0FFF770FF03461A46574B1A7024
:10072400FFF76AFF03461A46554B1A70FFF764FF3A
:1007340003461A46534B1A70FFF75EFF03461A46E8
:10074400514B1A70FFF758FF03461A464F4B1A7065
:100754004A4B1A784A4B1B781344DAB2494B1B783C
:100764001344DAB2484B1B781344DAB2484B1A707C
:10077400474B1A78454B1B789A4248D1414B1B781A
:100784005BB2002B0FDA404B1B7807EE903AB8EEC1
:10079400677AF2EE046AC7EE267AF1EE677A3D4B89
:1007A400C3ED007A10E0374B1B781B02364A1278EF
:1007B400134307EE903AB8EEE77AF2EE046AC7EE16
:1007C400267A344BC3ED007A324BD3ED007AB2EE85
:1007D400027A27EE877AF1EE046AC7EE267A9FED55
:1007E4002E7A77EE877A2D4BC3ED007A234B1B7854
:1007F4001B02234A1278134307EE903AB8EEE77AC5
:10080400F2EE046AC7EE267A254BC3ED007A4FF464
:100814007A7000F077FA1F4B224A1A601D4BD3ED11
:10082400007AF5EE407AF1EE10FA0CD001224FF482
:1008340000511D4800F00CFD00224FF480511A486D
:1008440000F006FD61E7134B184A1A60114BD3ED13
:10085400007AF5EE407AF1EE10FA3FF456AF012239
:100864004FF48051104800F0F3FC00224FF4005183
:100874000D4800F0EDFC48E728000020700000203F
:10088400710000207200002073000020740000201A
:100894007500002080000020000000428400002039
:1008A400880000200000C84100040240000070429B
:1008B40080B594B000AF07F1200330220021184620
:1008C40001F022FC07F10C0300221A605A609A60BE
:1008D400DA601A610023BB60234B1B6C224A43F08D
:1008E40080531364204B1B6C03F08053BB60BB68C4
:1008F40000237B601D4B1B6823F440431B4A43F4D5
:1009040000431360194B1B6803F440437B607B680E
:1009140001233B624FF480337B620023BB6307F106
:100924002003184600F0AEFC0346002B01D000F073
:10093400C1F80F23FB6001233B6100237B614FF46B
:100944008053BB610023FB6107F10C0300211846AF
:1009540000F010FF0346002B01D000F0ABF800BFFD
:100964005037BD4680BD00BF0038024000700040D3
:1009740080B586B000AF07F1080300221A605A6000
:100984009A60DA603B4600221A605A601E4B1F4A86
:100994001A601D4B47225A601B4B00229A601A4B67
:1009A4004FF6FF72DA60184B00221A61164B0022D0
:1009B4005A61154B00229A61134801F087F80346E7
:1009C400002B01D000F076F84FF48053BB6007F1A0
:1009D400080319460C4801F023F90346002B01D003
:1009E40000F068F800233B6000237B603B46194617
:1009F400054801F0F7FA0346002B01D000F05AF83D
:100A040000BF1837BD4680BD28000020000001400B
:100A140080B588B000AF07F10C0300221A605A6059
:100A24009A60DA601A610023BB60204B1B6B1F4A7B
:100A340043F0800313631D4B1B6B03F08003BB6007
:100A4400BB6800237B60194B1B6B184A43F00203FD
:100A54001363164B1B6B03F002037B607B6800235C
:100A64003B60124B1B6B114A43F0010313630F4BA2
:100A74001B6B03F001033B603B6800224FF44851B9
:100A84000B4800F0E5FB4FF44853FB6001233B6146
:100A940000237B610023BB6107F10C031946044862
:100AA40000F03AFA00BF2037BD4680BD003802404E
:100AB4000004024080B400AF72B600BFFEE700003D
:100AC40080B483B000AF00237B60104B5B6C0F4A93
:100AD40043F4804353640D4B5B6C03F480437B60AD
:100AE4007B6800233B60094B1B6C084A43F080532E
:100AF4001364064B1B6C03F080533B603B6800BFE0
:100B04000C37BD465DF8047B704700BF00380240D7
:100B140080B485B000AF78607B681B680B4A934251
:100B24000DD10023FB600A4B5B6C094A43F00103BF
:100B34005364074B5B6C03F00103FB60FB6800BF6D
:100B44001437BD465DF8047B704700BF00000140C8
:100B54000038024080B400AFFEE780B400AFFEE787
:100B640080B400AFFEE780B400AFFEE780B400AF0E
:100B7400FEE780B400AF00BFBD465DF8047B70475C
:100B840080B400AF00BFBD465DF8047B704780B4FD
:100B940000AF00BFBD465DF8047B704780B500AF71
:100BA40000F090F800BF80BD80B400AF064BD3F8CE
:100BB4008830054A43F47003C2F8883000BFBD464C
:100BC4005DF8047B704700BF00ED00E0DFF834D02F
:100BD4000D480E490E4A002302E0D458C450043391
:100BE400C4188C42F9D30B4A0B4C002301E0136068
:100BF4000432A242FBD3FFF7D7FF01F061FAFFF7FB
:100C040077FD704700800120000000200C000020C8
:100C1400542100080C00002090000020FEE7000092
:100C240080B500AF0E4B1B680D4A43F4007313608C
:100C34000B4B1B680A4A43F480631360084B1B6820
:100C4400074A43F480731360032000F031F90F2046
:100C540000F008F8FFF734FF0023184680BD00BFFA
:100C6400003C024080B582B000AF7860124B1A6835
:100C7400124B1B7819464FF47A73B3FBF1F3B2FBB2
:100C8400F3F3184600F03BF90346002B01D001238F
:100C94000EE07B680F2B0AD8002279684FF0FF30F2
:100CA40000F011F9064A7B681360002300E0012379
:100CB40018460837BD4680BD00000020080000200B
:100CC4000400002080B400AF064B1B781A46064B84
:100CD4001B681344044A136000BFBD465DF8047BDF
:100CE400704700BF080000208C00002080B400AFD3
:100CF400034B1B681846BD465DF8047B704700BF74
:100D04008C00002080B584B000AF7860FFF7EEFF60
:100D1400B8607B68FB60FB68B3F1FF3F05D00A4B0A
:100D24001B781A46FB681344FB6000BFFFF7DEFF25
:100D34000246BB68D31AFA689A42F7D800BF00BFCC
:100D44001037BD4680BD00BF0800002080B485B0C8
:100D540000AF78607B6803F00703FB600C4BDB6833
:100D6400BB60BA684FF6FF031340BB60FB681A020E
:100D7400BB68134343F0BF6343F40033BB60044ACE
:100D8400BB68D36000BF1437BD465DF8047B704771
:100D940000ED00E080B400AF044BDB681B0A03F0F5
:100DA40007031846BD465DF8047B704700ED00E07C
:100DB40080B483B000AF03463960FB7197F9073004
:100DC400002B0ADB3B68DAB20C4997F907301201B1
:100DD400D2B20B4483F800230AE03B68DAB2084934
:100DE400FB7903F00F03043B1201D2B20B441A76D1
:100DF40000BF0C37BD465DF8047B704700E100E09E
:100E040000ED00E080B489B000AFF860B9607A60AA
:100E1400FB6803F00703FB61FB69C3F10703042BC1
:100E240028BF0423BB61FB690433062B02D9FB6989
:100E3400033B00E000237B614FF0FF32BB6902FA01
:100E440003F3DA43BB681A407B699A404FF0FF31E1
:100E54007B6901FA03F3D9437B680B4013431846BB
:100E64002437BD465DF8047B7047000080B582B02E
:100E740000AF78607B68013BB3F1807F01D301232D
:100E84000FE00A4A7B68013B53600F214FF0FF30AB
:100E9400FFF78EFF054B00229A60044B07221A606D
:100EA400002318460837BD4680BD00BF10E000E0AF
:100EB40080B582B000AF78607868FFF747FF00BF65
:100EC4000837BD4680BD80B586B000AF0346B96023
:100ED4007A60FB7300237B61FFF75CFF78617A68BB
:100EE400B9687869FFF78EFF024697F90F3011460B
:100EF4001846FFF75DFF00BF1837BD4680BD80B5BB
:100F040082B000AF78607868FFF7B0FF03461846F8
:100F14000837BD4680BD000080B489B000AF78605A
:100F2400396000237B6100233B610023BB61002304
:100F3400FB6159E10122FB6902FA03F37B613B681F
:100F44001B687A6913403B613A697B699A4240F0B5
:100F540048813B685B6803F00303012B05D03B68C1
:100F64005B6803F00303022B30D17B689B68BB6191
:100F7400FB695B00032202FA03F3DB43BA69134003
:100F8400BB613B68DA68FB695B0002FA03F3BA6988
:100F94001343BB617B68BA699A607B685B68BB6119
:100FA4000122FB6902FA03F3DB43BA691340BB6114
:100FB4003B685B681B0903F00102FB6902FA03F357
:100FC400BA691343BB617B68BA695A603B685B6862
:100FD40003F00303032B17D07B68DB68BB61FB6959
:100FE4005B00032202FA03F3DB43BA691340BB61DB
:100FF4003B689A68FB695B0002FA03F3BA6913431E
:10100400BB617B68BA69DA603B685B6803F0030321
:10101400022B23D1FB69DA087B68083253F82230AB
:10102400BB61FB6903F007039B000F2202FA03F381
:10103400DB43BA691340BB613B681A69FB6903F07F
:1010440007039B0002FA03F3BA691343BB61FB690C
:10105400DA087B680832B96943F822107B681B6898
:10106400BB61FB695B00032202FA03F3DB43BA6949
:101074001340BB613B685B6803F00302FB695B00E0
:1010840002FA03F3BA691343BB617B68BA691A6055
:101094003B685B6803F44033002B00F0A28000231C
:1010A400FB60574B5B6C564A43F480435364544B88
:1010B4005B6C03F48043FB60FB68524AFB699B084A
:1010C400023352F82330BB61FB6903F003039B0036
:1010D4000F2202FA03F3DB43BA691340BB617B6856
:1010E400494A934219D07B68484A934213D07B689B
:1010F400474A93420DD07B68464A934207D07B68A7
:10110400454A934201D1042308E0072306E0032360
:1011140004E0022302E0012300E00023FA6902F064
:10112400030292009340BA691343BB613549FB69DA
:101134009B080233BA6941F82320384B9B68BB6192
:101144003B69DB43BA691340BB613B685B6803F4EA
:101154008013002B03D0BA693B691343BB612F4A48
:10116400BB6993602D4BDB68BB613B69DB43BA69A8
:101174001340BB613B685B6803F40013002B03D08E
:10118400BA693B691343BB61244ABB69D360234BEF
:101194005B68BB613B69DB43BA691340BB613B6875
:1011A4005B6803F40033002B03D0BA693B69134333
:1011B400BB611A4ABB695360184B1B68BB613B692E
:1011C400DB43BA691340BB613B685B6803F480335B
:1011D400002B03D0BA693B691343BB610F4ABB6957
:1011E4001360FB690133FB61FB690F2B7FF6A2AE31
:1011F40000BF00BF2437BD465DF8047B704700BFC5
:10120400003802400038014000000240000402405F
:1012140000080240000C024000100240003C014063
:1012240080B485B000AF78600B467B807B681A6918
:101234007B881340002B02D00123FB7301E00023C1
:10124400FB73FB7B18461437BD465DF8047B70477F
:1012540080B483B000AF78600B467B8013467B700C
:101264007B78002B03D07A887B689A6103E07B88C3
:101274001A047B689A6100BF0C37BD465DF8047B95
:101284007047000080B586B000AF78607B68002BA3
:1012940001D1012367E27B681B6803F00103002B83
:1012A40075D0884B9B6803F00C03042B0CD0854B42
:1012B4009B6803F00C03082B12D1824B5B6803F488
:1012C4008003B3F5800F0BD17E4B1B6803F400330E
:1012D400002B5BD07B685B68002B57D1012342E273
:1012E4007B685B68B3F5803F06D1764B1B68754A13
:1012F40043F4803313601DE07B685B68B3F5A02F73
:101304000CD1704B1B686F4A43F4802313606D4B00
:101314001B686C4A43F4803313600BE0694B1B6811
:10132400684A23F480331360664B1B68654A23F4D0
:10133400802313607B685B68002B13D0FFF7D6FC17
:10134400386108E0FFF7D2FC02463B69D31A642BEC
:1013540001D9032307E25B4B1B6803F40033002B22
:10136400F0D014E0FFF7C2FC386108E0FFF7BEFCE0
:1013740002463B69D31A642B01D90323F3E1514B91
:101384001B6803F40033002BF0D100E000BF7B683E
:101394001B6803F00203002B63D04A4B9B6803F0E5
:1013A4000C03002B0BD0474B9B6803F00C03082B5A
:1013B4001CD1444B5B6803F48003002B16D1414BD2
:1013C4001B6803F00203002B05D07B68DB68012B4C
:1013D40001D00123C7E13B4B1B6823F0F8027B6873
:1013E4001B69DB00374913430B603AE07B68DB6819
:1013F400002B20D0344B01221A60FFF777FC3861B0
:1014040008E0FFF773FC02463B69D31A022B01D9AB
:101414000323A8E12B4B1B6803F00203002BF0D03D
:10142400284B1B6823F0F8027B681B69DB00254905
:1014340013430B6015E0244B00221A60FFF756FC9F
:10144400386108E0FFF752FC02463B69D31A022BCD
:1014540001D9032387E11B4B1B6803F00203002B14
:10146400F0D17B681B6803F00803002B36D07B683F
:101474005B69002B16D0154B01221A60FFF736FC6E
:10148400386108E0FFF732FC02463B69D31A022BAD
:1014940001D9032367E10B4B5B6F03F00203002BBD
:1014A400F0D01BE0094B00221A60FFF71FFC3861E3
:1014B4000EE0FFF71BFC02463B69D31A022B07D947
:1014C400032350E10038024000004742800E4742A7
:1014D400884B5B6F03F00203002BEAD17B681B6827
:1014E40003F00403002B00F097800023FB75814B6D
:1014F4001B6C03F08053002B0FD10023BB607D4B8A
:101504001B6C7C4A43F0805313647A4B1B6C03F0CE
:101514008053BB60BB680123FB75774B1B6803F4E6
:101524008073002B18D1744B1B68734A43F4807387
:101534001360FFF7DBFB386108E0FFF7D7FB0246D7
:101544003B69D31A022B01D903230CE16A4B1B68B4
:1015540003F48073002BF0D07B689B68012B06D1C9
:10156400644B1B6F634A43F0010313671CE07B6801
:101574009B68052B0CD15F4B1B6F5E4A43F0040341
:1015840013675C4B1B6F5B4A43F0010313670BE06B
:10159400584B1B6F574A23F001031367554B1B6FBE
:1015A400544A23F0040313677B689B68002B15D00F
:1015B400FFF79CFB38610AE0FFF798FB02463B69A2
:1015C400D31A41F28832934201D90323CBE0494B29
:1015D4001B6F03F00203002BEED014E0FFF786FB31
:1015E40038610AE0FFF782FB02463B69D31A41F2F5
:1015F4008832934201D90323B5E03E4B1B6F03F0BD
:101604000203002BEED1FB7D012B05D1394B1B6C62
:10161400384A23F0805313647B689B69002B00F0E5
:10162400A180344B9B6803F00C03082B5CD07B68CF
:101634009B69022B41D1314B00221A60FFF756FB04
:10164400386108E0FFF752FB02463B69D31A022BCC
:1016540001D9032387E0274B1B6803F00073002B99
:10166400F0D17B68DA697B681B6A1A437B685B6A22
:101674009B011A437B689B6A5B08013B1B041A436A
:101684007B68DB6A1B061B4913434B601B4B01221F
:101694001A60FFF72BFB386108E0FFF727FB0246CF
:1016A4003B69D31A022B01D903235CE0114B1B685D
:1016B40003F00073002BF0D054E0104B00221A60AA
:1016C400FFF714FB386108E0FFF710FB02463B69A3
:1016D400D31A022B01D9032345E0064B1B6803F000
:1016E4000073002BF0D13DE07B689B69012B07D18F
:1016F400012338E000380240007000406000474297
:101704001B4B5B68FB607B689B69012B28D0FB68E3
:1017140003F480027B68DB699A4221D1FB6803F001
:101724003F027B681B6A9A421AD1FA6847F6C07373
:1017340013407A68526A9201934211D1FB6803F410
:1017440040327B689B6A5B08013B1B049A4207D1C9
:10175400FB6803F070627B68DB6A1B069A4201D067
:10176400012300E0002318461837BD4680BD00BFA2
:101774000038024080B584B000AF786039607B687F
:10178400002B01D10123CCE0684B1B6803F0070355
:101794003A689A420CD9654B3A68D2B21A70634BD4
:1017A4001B6803F007033A689A4201D00123B8E0AA
:1017B4007B681B6803F00203002B20D07B681B6846
:1017C40003F00403002B05D0594B9B68584A43F49B
:1017D400E05393607B681B6803F00803002B05D07B
:1017E400534B9B68524A43F460439360504B9B684D
:1017F40023F0F0027B689B684D4913438B607B6840
:101804001B6803F00103002B44D07B685B68012B49
:1018140007D1474B1B6803F40033002B19D1012374
:101824007FE07B685B68022B03D07B685B68032BDB
:1018340007D13F4B1B6803F00073002B09D1012330
:101844006FE03B4B1B6803F00203002B01D1012323
:1018540067E0374B9B6823F003027B685B6834497D
:1018640013438B60FFF742FAF8600AE0FFF73EFA91
:101874000246FB68D31A41F28832934201D903230A
:101884004FE02B4B9B6803F00C027B685B689B006A
:101894009A42EBD1254B1B6803F007033A689A423E
:1018A4000CD2224B3A68D2B21A70204B1B6803F058
:1018B40007033A689A4201D0012332E07B681B682F
:1018C40003F00403002B08D0194B9B6823F4E05267
:1018D4007B68DB68164913438B607B681B6803F0E5
:1018E4000803002B09D0124B9B6823F460427B68E9
:1018F4001B69DB000E4913438B6000F021F802469C
:101904000B4B9B681B0903F00F030A49CB5C22FABB
:1019140003F3094A1360094B1B681846FFF7A2F941
:10192400002318461037BD4680BD00BF003C02406E
:101934000038024034210008000000200400002088
:101944002DE9B04F90B000AF00237B630023FB630D
:1019540000233B630023BB63594B9B6803F00C03D8
:10196400082B0DD0082B00F2A180002B02D0042BF1
:1019740003D09BE0534BBB639BE0534BBB6398E0AA
:101984004F4B5B6803F03F037B634D4B5B6803F491
:101994008003002B28D04A4B5B689B0900223B62E2
:1019A4007A623B6AC3F308000021474B03FB01F250
:1019B400002300FB03F31344434AA0FB0212FA6220
:1019C4000A46BA62FA6A1344FB627B6B0022BB616B
:1019D400FA61D7E90623D7E90A01FEF7F9FB0246C3
:1019E4000B461346FB6353E0354B5B689B090022AF
:1019F4003B617A613B69C3F3080A4FF0000B52461E
:101A04005B464FF000004FF00001590141EAD261FA
:101A1400500102460B46B2EB0A0863EB0B094FF088
:101A240000024FF000034FEA891343EA98634FEA38
:101A34008812B2EB080463EB09054FF000024FF083
:101A44000003EB0043EA5473E20014461D4614EB12
:101A54000A033B6045EB0B037B604FF000024FF041
:101A64000003D7E9004529468B02214643EA9153F6
:101A740021468A02104619467B6B0022BB60FA603D
:101A8400D7E90223FEF7A4FB02460B461346FB6389
:101A94000B4B5B681B0C03F0030301335B003B63DC
:101AA400FA6B3B6BB2FBF3F3BB6302E0054BBB6326
:101AB40000BFBB6B18464037BD46BDE8B08F00BFC2
:101AC400003802400024F40040787D0180B582B0E3
:101AD40000AF78607B68002B01D1012341E07B6873
:101AE40093F83D30DBB2002B06D17B68002283F8EB
:101AF4003C207868FFF70CF87B68022283F83D20CD
:101B04007B681A687B6804331946104600F050F964
:101B14007B68012283F846207B68012283F83E20FB
:101B24007B68012283F83F207B68012283F84020F0
:101B34007B68012283F841207B68012283F84220DC
:101B44007B68012283F843207B68012283F84420C8
:101B54007B68012283F845207B68012283F83D20BD
:101B6400002318460837BD4680BD000080B485B008
:101B740000AF78607B6893F83D30DBB2012B01D075
:101B840001233CE07B68022283F83D207B681B68CC
:101B94001E4A934218D07B681B68B3F1804F13D060
:101BA4007B681B681A4A93420ED07B681B68194AEB
:101BB400934209D07B681B68174A934204D07B6820
:101BC4001B68164A934211D17B681B689B6803F01B
:101BD4000703FB60FB68062B10D07B681B681A6840
:101BE4007B681B6842F001021A6007E07B681B688F
:101BF4001A687B681B6842F001021A6000231846C9
:101C04001437BD465DF8047B704700BF00000140F7
:101C14000004004000080040000C00400040014067
:101C240080B584B000AF786039600023FB737B68B3
:101C340093F83C30012B01D10223B4E07B680122EC
:101C440083F83C207B68022283F83D207B681B6874
:101C54009B68BB60BB6823F07703BB60BB6823F45D
:101C64007F43BB607B681B68BA689A603B681B68EB
:101C7400B3F5005F3ED0B3F5005F00F28780B3F5A3
:101C8400805F00F08680B3F5805F7FD8702B1AD018
:101C9400702B7BD8602B50D0602B77D8502B3CD046
:101CA400502B73D8402B58D0402B6FD8302B64D096
:101CB400302B6BD8202B60D0202B67D8002B5CD026
:101CC400102B5AD062E07B6818683B6899683B68BF
:101CD4005A683B68DB6800F065F97B681B689B68A1
:101CE400BB60BB6843F07703BB607B681B68BA6862
:101CF4009A604FE07B6818683B6899683B685A684B
:101D04003B68DB6800F04EF97B681B689A687B6867
:101D14001B6842F480429A603CE07B6818683B6828
:101D240059683B68DB681A4600F0C2F87B681B6898
:101D34005021184600F01BF92CE07B6818683B68BA
:101D440059683B68DB681A4600F0E1F87B681B6859
:101D54006021184600F00BF91CE07B6818683B68AA
:101D640059683B68DB681A4600F0A2F87B681B6878
:101D74004021184600F0FBF80CE07B681A683B68C9
:101D84001B681946104600F0F2F803E00123FB73C8
:101D940000E000BF7B68012283F83D207B680022BD
:101DA40083F83C20FB7B18461037BD4680BD0000FD
:101DB40080B485B000AF786039607B681B68FB60D5
:101DC4007B68344A93420FD07B68B3F1804F0BD0C9
:101DD4007B68314A934207D07B68304A934203D0F0
:101DE4007B682F4A934208D1FB6823F07003FB60A1
:101DF4003B685B68FA681343FB607B68254A93423F
:101E04001BD07B68B3F1804F17D07B68224A934282
:101E140013D07B68214A93420FD07B68204A9342B7
:101E24000BD07B681F4A934207D07B681E4A9342BB
:101E340003D07B681D4A934208D1FB6823F44073A6
:101E4400FB603B68DB68FA681343FB60FB6823F0C4
:101E540080023B685B691343FB607B68FA681A6025
:101E64003B689A687B68DA623B681A687B689A62A6
:101E74007B68084A934203D13B681A697B681A63FA
:101E84007B6801225A6100BF1437BD465DF8047BAC
:101E9400704700BF000001400004004000080040FB
:101EA400000C004000400140004401400048014053
:101EB40080B487B000AFF860B9607A60FB681B6AD1
:101EC4007B61FB681B6A23F00102FB681A62FB68F2
:101ED4009B693B613B6923F0F0033B617B681B0119
:101EE4003A6913433B617B6923F00A037B617A6996
:101EF400BB6813437B61FB683A699A61FB687A6942
:101F04001A6200BF1C37BD465DF8047B704780B47D
:101F140087B000AFF860B9607A60FB681B6A23F091
:101F24001002FB681A62FB689B697B61FB681B6A91
:101F34003B617B6923F470437B617B681B037A6993
:101F440013437B613B6923F0A0033B61BB681B0126
:101F54003A6913433B61FB687A699A61FB683A69A1
:101F64001A6200BF1C37BD465DF8047B704780B41D
:101F740085B000AF786039607B689B68FB60FB6864
:101F840023F07003FB603A68FB68134343F00703D4
:101F9400FB607B68FA689A6000BF1437BD465DF841
:101FA400047B704780B487B000AFF860B9607A6092
:101FB4003B60FB689B687B617B6923F47F437B61A7
:101FC4003B681A027B681A43BB6813437A6913435C
:101FD4007B61FB687A699A6000BF1C37BD465DF877
:101FE400047B704780B485B000AF786039607B684B
:101FF40093F83C30012B01D1022350E07B6801228D
:1020040083F83C207B68022283F83D207B681B68B0
:102014005B68FB607B681B689B68BB60FB6823F0A4
:102024007003FB603B681B68FA681343FB607B68C2
:102034001B68FA685A607B681B681C4A934218D074
:102044007B681B68B3F1804F13D07B681B68184A08
:1020540093420ED07B681B68164A934209D07B6872
:102064001B68154A934204D07B681B68134A934249
:102074000CD1BB6823F08003BB603B685B68BA6823
:102084001343BB607B681B68BA689A607B68012253
:1020940083F83D207B68002283F83C200023184607
:1020A4001437BD465DF8047B704700BF0000014053
:1020B4000004004000080040000C004000400140C3
:1020C40070B50D4D0D4C641BA4100026A64209D119
:1020D4000B4D0C4C00F020F8641BA4100026A64203
:1020E40005D170BD55F8043B98470136EEE755F825
:1020F400043B98470136F2E74C2100084C210008C4
:102104004C2100085021000802440346934200D1A8
:10211400704703F8011BF9E7F8B500BFF8BC08BC29
:102124009E467047F8B500BFF8BC08BC9E46704791
:102134000000000000000000010203040607080973
:08214400C0E0FF7F0100000074
:04214C00B9010008CD
:0421500095010008ED
:0C2154000024F400100000000100000056
:0400000508000BD113
:00000001FF
